:020000040800F2
:10000000000001204D0800089D0800089D08000818
:100010009D0800089D0800089D08000800000000D9
:100020000000000000000000000000009D08000823
:100030009D080008000000009D0800089D080008B9
:100040009D0800089D0800089D0800089D080008FC
:100050009D0800089D0800089D0800089D080008EC
:100060009D0800089D0800089D0800089D080008DC
:100070009D0800089D0800089D0800089D080008CC
:100080009D0800089D0800089D0800089D080008BC
:100090009D0800089D0800089D0800089D080008AC
:1000A0009D0800089D0800089D0800089D0800089C
:1000B0009D0800089D0800089D0800089D0800088C
:1000C0009D0800089D0800089D0800089D0800087C
:1000D0009D0800089D0800089D0800089D0800086C
:1000E0009D0800089D0800089D0800089D0800085C
:1000F0009D0800089D0800089D0800089D0800084C
:100100009D0800089D0800089D0800089D0800083B
:100110009D0800089D0800089D0800089D0800082B
:100120009D0800089D0800089D0800089D0800081B
:100130009D0800089D0800089D0800089D0800080B
:100140009D0800089D0800089D0800089D080008FB
:100150009D0800089D0800089D0800089D080008EB
:100160009D0800089D0800089D0800089D080008DB
:100170009D0800089D0800089D0800089D080008CB
:080180009D0800089D0800081D
:100188000348044B834202D0034B03B1184770471E
:100198000000002000000020000000000548064B79
:1001A8001B1AD90F01EBA301491002D0034B03B16D
:1001B80018477047000000200000002000000000E1
:1001C80010B5064C237843B9FFF7DAFF044B13B197
:1001D8000448AFF300800123237010BD0000002005
:1001E80000000000E808000808B5054B1BB10549E8
:1001F8000548AFF30080BDE80840FFF7CFBF00BF58
:100208000000000004000020E808000880B483B063
:1002180000AF104B1B687B600F4B1B683B607B6813
:10022800B3F1005F03D37B680C4A934201D90023E2
:100238000AE03B68074A934203D33B68084A934263
:1002480001D9002300E0012318460C37BD465DF8AC
:10025800047B7047004000080440000800000120AB
:10026800FFFF010880B584B000AF0C4B1B68FB6032
:100278000B4B1B68BB60BB687B6072B600BF094B49
:10028800064A9A60FB683B603B6883F3088800BFB6
:100298007B68984700BF1037BD4680BD0040000806
:1002A8000440000800ED00E080B500AF02210820FE
:1002B80000F0BCF80221102000F0B8F80221182044
:1002C80000F0B4F80221202000F0B0F800BF80BD93
:1002D80080B588B000AF78607B68002B3BD07B6826
:1002E800B3F1FF3F37D07B68B3F5E03F35D800F076
:1002F80075F8FFF7D9FF1B4BFB611B4BBB617B6894
:1003080003F1006303F580437B6111E0FB691B681F
:100318003B613969B86900F0E9F80346FB73FB7B78
:10032800082B0AD1FB690433FB61BB690433BB6149
:10033800BA697B699A42E9D300E000BF4FF0FF3108
:100348000A4800F0D3F84FF0FF31094800F0CEF822
:1003580000F05CF802E000BF00E000BF2037BD46B7
:1003680080BD00BF0000020800400008FCFF010833
:10037800F8FF010880B500AF00F03AF9012000F05D
:1003880065F900BF212000F071F90346002BF9D070
:1003980000BF00BF80BD000080B582B000AFFFF78E
:1003A800E9FF0B4B1B687B600A4B1B683B607B6853
:1003B800094A934202D13868FFF78AFFFFF726FF00
:1003C8000346002B02D0FFF74DFF00BF00BFFDE73B
:1003D800FCFF0108F8FF0108EFBEADDE80B400AFF6
:1003E800074B1B69002B05DA054B064A5A60044B7C
:1003F800054A5A6000BFBD465DF8047B704700BFE0
:10040800003C024023016745AB89EFCD80B400AFC3
:10041800054B1B69044A43F00043136100BFBD4606
:100428005DF8047B704700BF003C024080B584B093
:1004380000AF78600B46FB700023FB600823FB725B
:10044800FB78002B02D10023FB6010E0FB78012B26
:1004580003D14FF48073FB6009E0FB78022B03D1D2
:100468004FF40073FB6002E04FF44073FB6000F050
:10047800A7F80346FB72FB7A082B2FD11A4B1B698E
:10048800194A23F440731361174B1A691649FB681C
:1004980013430B61144B1B69134A23F0F8031361D0
:1004A800114B1A697B6813430F4A43F00203136127
:1004B8000D4B1B690C4A43F48033136100F080F83C
:1004C8000346FB72084B1B69074A23F002031361BA
:1004D800054B1B69044A23F0F8031361FB7A18469D
:1004E8001037BD4680BD00BF003C024080B584B0D7
:1004F80000AF786039600823FB7300F061F80346A9
:10050800FB73FB7B082B1ED1114B1B69104A23F48C
:10051800407313610E4B1B690D4A43F4007313615A
:100528000B4B1B690A4A43F0010313617B683A6865
:100538001A6000F045F80346FB73054B1B69044A33
:1005480023F001031361FB7B18461037BD4680BDBD
:10055800003C024080B483B000AF0823FB71174B06
:10056800DB6803F48033B3F5803F02D10123FB71CC
:100578001CE0124BDB6803F01003002B02D00523AC
:10058800FB7113E00D4BDB6803F0EF03002B02D087
:100598000623FB710AE0094BDB6803F00203002B1A
:1005A80002D00723FB7101E00823FB71FB79184691
:1005B8000C37BD465DF8047B704700BF003C024025
:1005C80080B582B000AF0823FB71FFF7C3FF034675
:1005D800FB7103E0FFF7BEFF0346FB71FB79DBB25B
:1005E800012BF7D0FB79DBB218460837BD4680BD32
:1005F80080B400AF124B1B68114A43F0010313602B
:100608000F4B00229A600E4B1B680D4A23F0A16322
:1006180023F4803313600A4B0A4A5A60084B0A4A8B
:10062800C3F88420064B1B68054A23F48023136013
:10063800034B0022DA6000BFBD465DF8047B7047BB
:1006480000380240103000240030002080B483B00D
:1006580000AF0346FB71044AFB79136000BF0C37F7
:10066800BD465DF8047B70470000474280B487B000
:1006780000AF0346FB710023FB6000237B6100236E
:10068800FB74FB795B09DBB2FB60FB68012B03D1D0
:10069800124B1B687B6109E0FB68022B03D10F4BEF
:1006A8001B6F7B6102E00D4B5B6F7B61FB7903F095
:1006B8001F03FB607A69FB6822FA03F303F0010366
:1006C800002B02D00123FB7401E00023FB74FB7CA8
:1006D80018461C37BD465DF8047B70470038024059
:1006E80080B500AF164BD3F88830154A43F4700331
:1006F800C2F88830134B1B68124A43F00103136099
:10070800104B00229A600F4B1B680E4A23F084732B
:1007180023F4803313600B4B0B4A5A60094B1B6858
:10072800084A23F480231360064B0022DA6000F0A5
:100738000DF8034B4FF000629A6000BF80BD00BF08
:1007480000ED00E0003802401030002480B483B08F
:1007580000AF00237B6000233B60364B1B68354AA3
:1007680043F480331360334B1B6803F400333B605E
:100778007B6801337B603B68002B03D17B68B3F552
:10078800A06FF0D12B4B1B6803F40033002B02D071
:1007980001233B6001E000233B603B68012B42D111
:1007A800244B1B6C234A43F080531364224B1B6871
:1007B800214A43F4404313601E4B1E4A9B689360D2
:1007C8001C4B9B681B4A43F400439360194B9B687E
:1007D800184A43F4A0539360164B184A5A60154BB5
:1007E8001B68144A43F08073136000BF114B1B68E9
:1007F80003F00073002BF9D0114B40F205721A6018
:100808000C4B9B680B4A23F003039360094B9B68CE
:10081800084A43F00203936000BF064B9B6803F04D
:100828000C03082BF9D100BF0C37BD465DF8047BDB
:10083800704700BF0038024000700040195440075C
:10084800003C0240DFF834D0002103E00C4B5B5839
:10085800435004310B480C4B42189A42F6D30B4ACA
:1008680002E0002342F8043B094B9A42F9D3FFF710
:1008780037FF00F011F8FFF78FFD704700000120E7
:1008880008090008000000200000002000000020E7
:100898001C000020FEE7000070B50D4B0D4D5B1BE2
:1008A8009C100026A64209D100F01AF80A4D0B4BFD
:1008B8005B1B9C100026A64205D170BD55F8043B71
:1008C80098470136EEE755F8043B98470136F2E7BA
:1008D80000090008000900080009000804090008C8
:1008E800F8B500BFF8BC08BC9E467047F8B500BF15
:0808F800F8BC08BC9E467047E5
:04090000F1010008F9
:04090400C90100081D
:040000050800084D9A
:00000001FF
